:10000000020000970040809302000117FFC1011316
:10001000002088630000A02300408093FE209CE322
:1000200002001117FE010113034000EF010017B792
:100030002007A68300018637008007936A0607130E
:10004000000694630000006FFFF70713FE071AE332
:10005000FFF78793FE0794E3FE1FF06F020007B7D8
:100060000007A783FF010113000966B700112623CB
:1000700000D786B328000593000007130017161356
:1000800000C786330006102300170713FEB718E3D6
:0C00900050078793FEF692E3F95FF0EF53
:00000001FF
